:0A017C003F065B4F666D7D077F6F45
:050186001200F980FBEE
:1000F90078087C007D007BFF7A01797C7E007F0A8D
:100109001200D3751207C3E5129464748094805069
:1001190035E51275F00784E5F07027E51275F00AE8
:1001290084AFF0E51275F00A8475F00A84AEF074B4
:10013900082FF8E6F5A0AF0674082FF8E6F5B01217
:060149000150051280C008
:01014F00228D
:10015000758910E4FFEFC394147480948050107577
:0F0160008D3C758BB0D28E308FFDC28F0F80E635
:01016F00226D
:030000000201708A
:0C017000787FE4F6D8FD7581120201864C
:10000300E709F608DFFA8046E709F208DFFA803EDF
:1000130088828C83E709F0A3DFFA8032E309F608CC
:10002300DFFA8078E309F208DFFA807088828C8334
:10003300E309F0A3DFFA806489828A83E0A3F608E8
:10004300DFFA805889828A83E0A3F208DFFA804CC2
:1000530080D280FA80C680D4806980F28033801099
:1000630080A680EA809A80A880DA80E280CA803302
:1000730089828A83ECFAE493A3C8C582C8CCC5837A
:10008300CCF0A3C8C582C8CCC583CCDFE9DEE7804A
:100093000D89828A83E493A3F608DFF9ECFAA9F0C9
:1000A300EDFB2289828A83ECFAE0A3C8C582C8CC1F
:1000B300C583CCF0A3C8C582C8CCC583CCDFEADE38
:1000C300E880DB89828A83E493A3F208DFF980CC9A
:1000D30088F0EF60010E4E60C388F0ED2402B40493
:1000E3000050B9F582EB2402B4040050AF2323453A
:0600F3008223900053730C
:00000001FF
