:0F01E20048656C6C6F2045766572796F6E6500AD
:1000F90078087C007D007BFF7A0179E27E007F0F22
:100109001200D37590FF12019F7FFF1201857FC2F4
:100119001201B87FFF120185E4F517C3E517940EA4
:1001290074809480501374082517F8E6FF1201CDE6
:0B0139007FC8120185051780E280FEE0
:10018500E4FEEEC39F5012E4FDEDC3940A7480941F
:090195008050030D80F30E80E997
:01019E00223E
:100168007F0112017FD2B27F0112017F8E907F0141
:0701780012017FC2B27F01FA
:06017F00000000DFFB227E
:10019F007F3C1201B87F0E1201B87F011201B87FA8
:0901AF00061201B87F800201B8BC
:10014400D2B17F0112017FC2B07F0112017FD2B20E
:100154007F0112017FAE90120176C2B17F011201BC
:030164007FAF0664
:010167002275
:0201B800AE0790
:1001BA00C2B17F0112017FC2B0120168D2B17FFFC2
:0301CA00020185AA
:0201CD00AE077B
:1001CF00C2B17F0112017FD2B0120168D2B17FFF9D
:0301DF0002018595
:030000000201F109
:0C01F100787FE4F6D8FD7581180200F953
:10000300E709F608DFFA8046E709F208DFFA803EDF
:1000130088828C83E709F0A3DFFA8032E309F608CC
:10002300DFFA8078E309F208DFFA807088828C8334
:10003300E309F0A3DFFA806489828A83E0A3F608E8
:10004300DFFA805889828A83E0A3F208DFFA804CC2
:1000530080D280FA80C680D4806980F28033801099
:1000630080A680EA809A80A880DA80E280CA803302
:1000730089828A83ECFAE493A3C8C582C8CCC5837A
:10008300CCF0A3C8C582C8CCC583CCDFE9DEE7804A
:100093000D89828A83E493A3F608DFF9ECFAA9F0C9
:1000A300EDFB2289828A83ECFAE0A3C8C582C8CC1F
:1000B300C583CCF0A3C8C582C8CCC583CCDFEADE38
:1000C300E880DB89828A83E493A3F208DFF980CC9A
:1000D30088F0EF60010E4E60C388F0ED2402B40493
:1000E3000050B9F582EB2402B4040050AF2323453A
:0600F3008223900053730C
:00000001FF
