:0A0192003F065B4F666D7D077F6F2F
:05019C001200F980FBD8
:1000F90078087C007D007BFF7A0179927E007F0A77
:100109001200D3751207C3E5129464748094805069
:100119004BE51275F00784E5F06016E51275F00AF3
:1001290084E5F06407600AE51275F00A84640770D3
:1001390027E51275F00A84AFF0E51275F00A8475A7
:10014900F00A84AEF074082FF8E6F5A0AF0674083B
:0C0159002FF8E6F5B0120166051280AA2E
:010165002277
:10016600758910E4FFEFC394147480948050107561
:0F0176008D3C758BB0D28E308FFDC28F0F80E61F
:010185002257
:0300000002018674
:0C018600787FE4F6D8FD75811202019C20
:10000300E709F608DFFA8046E709F208DFFA803EDF
:1000130088828C83E709F0A3DFFA8032E309F608CC
:10002300DFFA8078E309F208DFFA807088828C8334
:10003300E309F0A3DFFA806489828A83E0A3F608E8
:10004300DFFA805889828A83E0A3F208DFFA804CC2
:1000530080D280FA80C680D4806980F28033801099
:1000630080A680EA809A80A880DA80E280CA803302
:1000730089828A83ECFAE493A3C8C582C8CCC5837A
:10008300CCF0A3C8C582C8CCC583CCDFE9DEE7804A
:100093000D89828A83E493A3F608DFF9ECFAA9F0C9
:1000A300EDFB2289828A83ECFAE0A3C8C582C8CC1F
:1000B300C583CCF0A3C8C582C8CCC583CCDFEADE38
:1000C300E880DB89828A83E493A3F208DFF980CC9A
:1000D30088F0EF60010E4E60C388F0ED2402B40493
:1000E3000050B9F582EB2402B4040050AF2323453A
:0600F3008223900053730C
:00000001FF
